:100000000C942A000C945A010C9499020C94470009
:100010000C9447000C9447000C9447000C94470044
:100020000C9447000C9447000C9447000C940B036D
:100030000C9447000C9447000C9447000C94470024
:100040000C9447000C9447000C9447000C94470014
:100050000C94470011241FBECFE5D8E0DEBFCDBF12
:1000600010E0A0E6B0E0E4EBF0E102C005900D92F4
:10007000AC3CB107D9F720E0ACECB0E001C01D9278
:10008000A43EB207E1F70E9455000C9458080C9466
:1000900000000E9421020E94B00160E08AE20E94FA
:1000A000A60382E00E94E20608950E94B0010E9429
:1000B00076030E9421020E944C030E9449000E9484
:1000C0001D0280E690E00E945B020E945D030E9498
:1000D0008C026330710581059105C8F50E94B50158
:1000E0008091CC009091CD00892B09F074C00E94C2
:1000F00006072FEF83ED90E3215080409040E1F719
:1001000000C000008CE690E00E9416072FEF89E601
:1001100098E1215080409040E1F700C000000E942B
:100120001D028FE690E00E945B022FEF89E698E1C6
:10013000215080409040E1F700C000000E941D0265
:1001400081E090E09093CD008093CC0044C00E9469
:100150008C026430710581059105E8F10E94BC01B3
:100160008091CC009091CD000197A9F50E940607DF
:100170002FEF83ED90E3215080409040E1F700C0E5
:1001800000008EE790E00E9416072FEF89E698E1C5
:10019000215080409040E1F700C000000E941D0205
:1001A00081E890E00E945B0265E082E00E948002AC
:1001B00081E990E00E945B022FEF89E698E12150EF
:1001C00080409040E1F700C000000E941D021092A4
:1001D000CD001092CC000E949E03893C910508F44A
:1001E00074CF0E949E038D32914080F10E94B50130
:1001F0008091CE009091CF00892B09F066CF0E94AC
:1002000006078FEF93ED20E3815090402040E1F707
:1002100000C0000089E990E00E9416070E941D02BC
:100220008CE990E00E945B028FEF93ED20E3815018
:1002300090402040E1F700C000000E941D0281E0D4
:1002400090E09093CF008093CE003FCF0E949E031A
:10025000893C910508F039CF0E94BC018091CE0005
:100260009091CF00019709F030CF0E9406078FEFE1
:1002700093ED20E3815090402040E1F700C0000062
:1002800085EA90E00E9416070E941D0288EA90E02D
:100290000E945B028FEF93ED20E38150904020405D
:1002A000E1F700C000000E941D021092CF001092E2
:1002B000CE000BCF1F920F920FB60F9211242F93E7
:1002C0003F934F935F936F937F938F939F93AF93DE
:1002D000BF93EF93FF930E9406072FEF83ED90E308
:1002E000215080409040E1F700C0000082EB90E098
:1002F0000E9416072FEF89E698E121508040904038
:10030000E1F700C000000E941D0285EB90E00E9412
:100310005B022FEF87EA91E6215080409040E1F7A1
:1003200000C000000E94B5012FEF87EA91E621503E
:1003300080409040E1F700C000000E94BC01FF91A6
:10034000EF91BF91AF919F918F917F916F915F914D
:100350004F913F912F910F900FBE0F901F901895C6
:1003600061E083E20E94A60308950E94B00161E06B
:1003700083E20E949504089560E083E20E94950460
:100380000895CF93C82F8BB36C2F669568778770CD
:10039000682B81E00E94730661E08CE00E94950466
:1003A0008FE99FE00197F1F700C0000060E08CE06A
:1003B0000E9495048C2F90E0880F991F880F991F39
:1003C000880F991F6BB388776770682B81E00E9454
:1003D000730661E08CE00E9495048FE99FE001972D
:1003E000F1F700C0000060E08CE00E9495048FE10E
:1003F0009EE40197F1F700C00000CF910895CF93DC
:10040000C82F60E08CE00E94950460E08BE00E94C1
:1004100095048C2F0E94C101CF910895CF93C82FCE
:1004200060E08CE00E94950461E08BE00E949504FE
:100430008C2F0E94C101CF91089581E00E94FF019D
:10044000089561E08DE00E94A60361E08EE00E94C5
:10045000A60361E08FE00E94A60361E080E10E94B4
:10046000A60361E08CE00E94A60361E08BE00E949D
:10047000A60361E080E20E94A6032FEF81EE94E0E4
:10048000215080409040E1F700C0000083E30E94CB
:10049000FF0182E30E94FF0188E20E94FF018CE0DD
:1004A0000E94FF010E941D0286E00E94FF0182E07F
:1004B0000E94FF010895CF92DF92EF92FF92CF93B7
:1004C000DF93EC01C12CD12C760107C00E940E02F3
:1004D0008FEFC81AD80AE80AF80AFE01EC0DFD1DD4
:1004E00080818111F3CF8FE39CE90197F1F700C080
:1004F0000000DF91CF91FF90EF90DF90CF900895B3
:10050000823029F4862F806C0E94FF010895862F87
:1005100080680E94FF0108956091D6007091D70015
:100520008091D8009091D900089581E00E94F4064E
:1005300008951F920F920FB60F9211242F933F939D
:100540004F935F936F937F938F939F93AF93BF93DB
:10055000EF93FF938091D500813009F04BC08091DB
:10056000D40081110DC012BE81E08093D40010929E
:10057000D0001092D1001092D2001092D3003AC055
:100580008091D0009091D100A091D200B091D30081
:10059000BA2FA92F982F882722B7BC01CD01620F4F
:1005A000711D811D911D0E94CA0729E23CE349E6A5
:1005B00054E40E9429070E949B076093D600709321
:1005C000D7008093D8009093D9002FEF83EF91E06C
:1005D000215080409040E1F700C000001092D00010
:1005E0001092D1001092D2001092D3001092D40039
:1005F0001092D500FF91EF91BF91AF919F918F9194
:100600007F916F915F914F913F912F910F900FBE0E
:100610000F901F9018951F920F920FB60F921124F2
:100620002F938F939F93AF93BF938091D00090911E
:10063000D100A091D200B091D3000196A11DB11DAF
:100640008093D0009093D100A093D200B093D300B8
:100650008B3D9240A105B10568F012BE1092D50005
:100660001092D4001092D0001092D1001092D200BB
:100670001092D300BF91AF919F918F912F910F90C6
:100680000FBE0F901F90189513BE81E083BF12BE5E
:1006900089B7816089BF089561E08CE20E94A6035A
:1006A00060E08BE20E94A60361E08BE20E94840579
:1006B0000E9495020E94440308958091D500811103
:1006C00014C061E08CE20E9495042FEF86E791E070
:1006D000215080409040E1F700C0000060E08CE2D3
:1006E0000E94950481E08093D50008958AB38E7F9F
:1006F0008ABB87B1806487B987B18F7787B987B1A3
:100700008E7F87B987B18D7F87B987B18B7F87B996
:1007100087B1877F87B987B18F7E87B986B18160BE
:1007200086B986B1826086B986B1846086B986B1A1
:10073000806886B986B1806286B9089586B1806482
:1007400086B9349BFECF84B195B108959DEC899F05
:10075000912D1124969596959695662309F472C06D
:10076000613009F0E1C0923021F118F4913039F094
:1007700008959330C1F1943009F44CC008959DEC74
:10078000899F912D1124969596959695990F292FCD
:10079000220F220F920F891B4AB321E030E0B901EA
:1007A00002C0660F771F8A95E2F7CB01842B8ABBC4
:1007B00008959DEC899F912D112492959F70990F1A
:1007C000990F292F220F220F920F891B47B321E087
:1007D00030E0B90102C0660F771F8A95E2F7CB01BE
:1007E000842B87BB089599E8899F912D11249295B8
:1007F0009F707EE1979F8019112444B321E030E07F
:10080000B90102C0660F771F8A95E2F7CB01842BEE
:1008100084BB08959DEC899F912D11249295969506
:10082000977078E2979F8019112441B321E030E05E
:10083000B90102C0660F771F8A95E2F7CB01842BBE
:1008400081BB0895923029F118F4913039F0089560
:100850009330D1F1943009F44FC008959DEC899FF5
:10086000912D1124969596959695990F292F220FE3
:10087000220F920F891B4AB321E030E0B90102C078
:10088000660F771F8A95E2F7CB01809584238ABB98
:1008900008959DEC899F912D112492959F70990F39
:1008A000990F292F220F220F920F891B47B321E0A6
:1008B00030E0B90102C0660F771F8A95E2F7CB01DD
:1008C0008095842387BB089599E8899F912D1124F1
:1008D00092959F707EE1979F8019112444B321E087
:1008E00030E0B90102C0660F771F8A95E2F7CB01AD
:1008F0008095842384BB08959DEC899F912D1124BC
:1009000092959695977078E2979F8019112441B33C
:1009100021E030E0B90102C0660F771F8A95E2F747
:10092000CB018095842381BB08959DEC899F912DF7
:100930001124969596959695662309F472C06130B8
:1009400009F0E1C0923021F118F4913039F00895A6
:100950009330C1F1943009F44CC008959DEC899F07
:10096000912D1124969596959695990F292F220FE2
:10097000220F920F891B4BB321E030E0B90102C076
:10098000660F771F8A95E2F7CB01842B8BBB089506
:100990009DEC899F912D112492959F70990F990F2D
:1009A000292F220F220F920F891B48B321E030E03C
:1009B000B90102C0660F771F8A95E2F7CB01842B3D
:1009C00088BB089599E8899F912D112492959F7075
:1009D0007EE1979F8019112445B321E030E0B901F1
:1009E00002C0660F771F8A95E2F7CB01842B85BB87
:1009F00008959DEC899F912D11249295969597705D
:100A000078E2979F8019112442B321E030E0B901C8
:100A100002C0660F771F8A95E2F7CB01842B82BB59
:100A20000895923029F118F4913039F008959330F7
:100A3000D1F1943009F44FC008959DEC899F912D18
:100A40001124969596959695990F292F220F220F8E
:100A5000920F891B4BB321E030E0B90102C0660F51
:100A6000771F8A95E2F7CB01809584238BBB08958D
:100A70009DEC899F912D112492959F70990F990F4C
:100A8000292F220F220F920F891B48B321E030E05B
:100A9000B90102C0660F771F8A95E2F7CB018095F6
:100AA000842388BB089599E8899F912D11249295FC
:100AB0009F707EE1979F8019112445B321E030E0BB
:100AC000B90102C0660F771F8A95E2F7CB018095C6
:100AD000842385BB08959DEC899F912D11249295C7
:100AE0009695977078E2979F8019112442B321E080
:100AF00030E0B90102C0660F771F8A95E2F7CB019B
:100B00008095842382BB08959DEC899F912D1124AB
:100B1000969596959695662309F472C0613009F012
:100B2000E1C0923021F118F4913039F008959330FA
:100B3000C1F1943009F44CC008959DEC899F912D2A
:100B40001124969596959695990F292F220F220F8D
:100B5000920F891B4BB321E030E0B90102C0660F50
:100B6000771F8A95E2F7CB01842B8BBB08959DEC10
:100B7000899F912D112492959F70990F990F292F7C
:100B8000220F220F920F891B48B321E030E0B901F8
:100B900002C0660F771F8A95E2F7CB01842B88BBD2
:100BA000089599E8899F912D112492959F707EE177
:100BB000979F8019112445B321E030E0B90102C0AC
:100BC000660F771F8A95E2F7CB01842B85BB0895CA
:100BD0009DEC899F912D112492959695977078E2BE
:100BE000979F8019112442B321E030E0B90102C07F
:100BF000660F771F8A95E2F7CB01842B82BB08959D
:100C0000923029F118F4913039F008959330D1F1F0
:100C1000943009F44FC008959DEC899F912D1124C3
:100C2000969596959695990F292F220F220F920F40
:100C3000891B4BB321E030E0B90102C0660F771F7A
:100C40008A95E2F7CB01809584238BBB08959DECB8
:100C5000899F912D112492959F70990F990F292F9B
:100C6000220F220F920F891B48B321E030E0B90117
:100C700002C0660F771F8A95E2F7CB018095842327
:100C800088BB089599E8899F912D112492959F70B2
:100C90007EE1979F8019112445B321E030E0B9012E
:100CA00002C0660F771F8A95E2F7CB0180958423F7
:100CB00085BB08959DEC899F912D11249295969561
:100CC000977078E2979F8019112442B321E030E0B9
:100CD000B90102C0660F771F8A95E2F7CB018095B4
:100CE000842382BB0895823059F018F4813031F0AA
:100CF0000895833039F0843039F008956BBB08953E
:100D000068BB089565BB089562BB0895813049F1C1
:100D100020F0823009F449C00895613069F028F06C
:100D2000623089F06330B1F0089585B78E7F85BF5A
:100D300085B78D7F85BF089585B7816085BF85B7ED
:100D40008D7F85BF089585B78E7F85BF85B782600B
:100D500085BF089585B7816085BF85B7826085BFEF
:100D60000895613069F028F0623089F06330B1F0A5
:100D7000089585B78B7F85BF85B7877F85BF089529
:100D800085B7846085BF85B7877F85BF089585B7A0
:100D90008B7F85BF85B7886085BF089585B78460E0
:100DA00085BF85B7886085BF0895633018F06330CC
:100DB00029F0089584B78F7B84BF089584B7806439
:100DC00084BF0895CF93C82F8FB780688FBF8BB72C
:100DD00080648BBF60E08AE20E94A6036C2F80E0F3
:100DE0000E948606CF910895CF93C82F8FB7806851
:100DF0008FBF8BB780688BBF60E08BE20E94A60339
:100E00006C2F81E00E948606CF9108958AB1886098
:100E10008AB98AB180618AB98BB18D7F8BB987E637
:100E200089B908955D9BFECF8CB908950F931F93E8
:100E3000CF938C01C0E003C00E941207CF5FF8017E
:100E4000EC0FF11D80818111F7CFCF911F910F9190
:100E500008950E943D070C941E080E94170858F040
:100E60000E94100840F029F45F3F29F00C94070815
:100E700051110C9452080C940D080E942F0868F32D
:100E80009923B1F3552391F3951B550BBB27AA2743
:100E900062177307840738F09F5F5F4F220F331F7D
:100EA000441FAA1FA9F335D00E2E3AF0E0E832D045
:100EB00091505040E695001CCAF72BD0FE2F29D048
:100EC000660F771F881FBB1F261737074807AB071A
:100ED000B0E809F0BB0B802DBF01FF2793585F4F8F
:100EE0003AF09E3F510578F00C9407080C94520894
:100EF0005F3FE4F3983ED4F3869577956795B79571
:100F0000F7959F5FC9F7880F911D9695879597F97B
:100F10000895E1E0660F771F881FBB1F62177307F4
:100F20008407BA0720F0621B730B840BBA0BEE1F09
:100F300088F7E09508950E94370888F09F5798F049
:100F4000B92F9927B751B0F0E1F0660F771F881FCE
:100F5000991F1AF0BA95C9F714C0B13091F00E94E8
:100F60005108B1E008950C945108672F782F882715
:100F7000B85F39F0B93FCCF3869577956795B3950F
:100F8000D9F73EF490958095709561957F4F8F4F7E
:100F90009F4F0895E89409C097FB3EF49095809583
:100FA000709561957F4F8F4F9F4F9923A9F0F92F2F
:100FB00096E9BB279395F695879577956795B795AD
:100FC000F111F8CFFAF4BB0F11F460FF1BC06F5F93
:100FD0007F4F8F4F9F4F16C0882311F096E911C0A5
:100FE000772321F09EE8872F762F05C0662371F0C6
:100FF00096E8862F70E060E02AF09A95660F771FDA
:10100000881FDAF7880F9695879597F9089597F9CD
:101010009F6780E870E060E008959FEF80EC08959E
:1010200000240A94161617061806090608950024C7
:101030000A9412161306140605060895092E039441
:10104000000C11F4882352F0BB0F40F4BF2B11F4B5
:1010500060FF04C06F5F7F4F8F4F9F4F089557FD14
:101060009058440F551F59F05F3F71F04795880F16
:1010700097FB991F61F09F3F79F0879508951216AD
:1010800013061406551FF2CF4695F1DF08C0161659
:1010900017061806991FF1CF86957105610508940A
:1010A0000895E894BB2766277727CB0197F9089521
:0410B000F894FFCFE2
:1010B4004C434420636865636B656400732A005382
:1010C40065776167652050726F626C656D00632A95
:1010D400005365776167652050726F626C656D209F
:1010E40000636C656172656400672A0047415320A0
:1010F4006C65616B006A2A0047415320434C4541AB
:101104005200622A00627265616B20696E20646518
:0C111400746563746564202121210000D3
:00000001FF
