S00D000046494E414C2E73726563AD
S11300000C94A7000C94D9010C943B030C94180491
S11300100C94C4000C94A1040C94C4000C94C4006B
S11300200C94C4000C94C4000C94C4000C94AD0350
S11300300C94C4000C94C4000C94C4000C94C4002C
S11300400C94C4000C94C4000C94C4000C94C4001C
S11300500C94C40000407A10F35A00A0724E1809A0
S11300600010A5D4E80000E87648170000E40B541B
S1130070020000CA9A3B000000E1F50500008096EA
S11300809800000040420F000000A086010000001C
S1130090102700000000E8030000000064000000D6
S11300A000000A00000000000100000000002C769F
S11300B0D888DC674F0823DFC1DFAE59E1B1B796BA
S11300C0E5E3E453C63AE651997696E8E6C2842617
S11300D0EB898C9B62ED407C6FFCEFBC9C9F40F2F3
S11300E0BAA56FA5F490055A2AF75C936B6CF9676F
S11300F06DC11BFCE0E40D47FEF520E6B500D0ED34
S1130100902E0300943577050080841E080000209B
S11301104E0A000000C80C333333330F986E128339
S11301201141EF8D2114893BE65516CFFEE6DB180D
S1130130D1844B381BF77C1D901DA4BBE4242032D2
S113014084725E228100C9F124ECA1E53D271124CB
S11301501FBECFE5D8E0DEBFCDBF10E0A0E6B0E023
S1130160EEEAF9E102C005900D92A43CB107D9F77B
S113017020E0A4ECB0E001C01D92A83EB207E1F774
S11301800E94D2000C94D50C0C9400000E94A00292
S11301900E942F0260E08AE20E941B0582E00E9416
S11301A0570808950E942F020E94EB040E94A002A7
S11301B00E94EE030E94E1040E94C6000E949C0279
S11301C081E690E00E94DA020E94FF030E942E035F
S11301D06330710581059105C8F50E943402809150
S11301E0C4009091C500892B09F074C00E948D0849
S11301F02FEF83ED90E3215080409040E1F700C061
S113020000008DE690E00E949D082FEF89E698E1BA
S1130210215080409040E1F700C000000E949C0201
S113022080E790E00E94DA022FEF89E698E12150FE
S113023080409040E1F700C000000E949C0281E0F1
S113024090E09093C5008093C40044C00E942E03A4
S11302506430710581059105E8F10E943B028091AB
S1130260C4009091C5000197A9F50E948D082FEF55
S113027083ED90E3215080409040E1F700C00000FE
S113028081E890E00E949D082FEF89E698E12150D3
S113029080409040E1F700C000000E949C0280E78B
S11302A090E00E94DA0265E082E00E94FF0284E8A6
S11302B090E00E94DA022FEF89E698E12150804015
S11302C09040E1F700C000000E949C021092C5001B
S11302D01092C4000E941305893C910508F474CF60
S11302E00E9413058D32914080F10E943402809166
S11302F0C6009091C700892B09F066CF0E948D0833
S11303008FEF93ED20E3815090402040E1F700C04F
S113031000008CE890E00E949D080E949C028FE8F7
S113032090E00E94DA028FEF93ED20E38150904039
S11303302040E1F700C000000E949C0281E090E0B0
S11303409093C7008093C6003FCF0E941305893C59
S1130350910508F039CF0E943B028091C60090912C
S1130360C700019709F030CF0E948D088FEF93EDFD
S113037020E3815090402040E1F700C000008AE96A
S113038090E00E949D080E949C028DE990E00E94EA
S1130390DA028FEF93ED20E3815090402040E1F7A3
S11303A000C000000E949C021092C7001092C60078
S11303B00BCF1F920F920FB60F9211242F933F93DE
S11303C04F935F936F937F938F939F93AF93BF9359
S11303D0EF93FF930E948D082FEF83ED90E321505C
S11303E080409040E1F700C0000089EA90E00E945C
S11303F09D082FEF89E698E1215080409040E1F775
S113040000C000000E949C028CEA90E00E94DA0284
S11304102FEF87EA91E6215080409040E1F700C039
S113042000000E9434022FEF87EA91E621508040B9
S11304309040E1F700C000000E943B02FF91EF9161
S1130440BF91AF919F918F917F916F915F914F91E8
S11304503F912F910F900FBE0F901F90189561E060
S113046083E20E941B0508950E942F0261E083E24B
S11304700E940A06089560E083E20E940A06089535
S1130480CF93C82F8BB36C2F669568778770682BD2
S113049081E00E94E80761E08CE00E940A068FE98F
S11304A09FE00197F1F700C0000060E08CE00E943B
S11304B00A068C2F90E0880F991F880F991F880FC8
S11304C0991F6BB388776770682B81E00E94E807F7
S11304D061E08CE00E940A068FE99FE00197F1F742
S11304E000C0000060E08CE00E940A068FE19EE4F8
S11304F00197F1F700C00000CF910895CF93C82F62
S113050060E08CE00E940A0660E08BE00E940A062C
S11305108C2F0E944002CF910895CF93C82F60E0A2
S11305208CE00E940A0661E08BE00E940A068C2F90
S11305300E944002CF91089581E00E947E020895B6
S113054061E08DE00E941B0561E08EE00E941B05C6
S113055061E08FE00E941B0561E080E10E941B05C1
S113056061E08CE00E941B0561E08BE00E941B05AA
S113057061E080E20E941B052FEF81EE94E02150A0
S113058080409040E1F700C0000083E30E947E02B7
S113059082E30E947E0288E20E947E028CE00E9436
S11305A07E020E949C0286E00E947E0282E00E94FB
S11305B07E020895CF92DF92EF92FF92CF93DF9362
S11305C0EC01C12CD12C760107C00E948D028FEF63
S11305D0C81AD80AE80AF80AFE01EC0DFD1D80814C
S11305E08111F3CF8FE39CE90197F1F700C000007C
S11305F0DF91CF91FF90EF90DF90CF9008958230FC
S113060029F4862F806C0E947E020895862F8068CC
S11306100E947E0208950F931F93CF93DF93CDB76B
S1130620DEB760970FB6F894DEBF0FBECDBF8E0164
S11306300F5F1F4F22E030E046E050E00E944C0A7A
S1130640C8010E94DA0260960FB6F894DEBF0FBEAE
S1130650CDBFDF91CF911F910F9108956091D2008A
S11306607091D3008091D4009091D500089581E0D9
S11306700E94690808951F920F920FB60F921124D9
S11306802F933F934F935F936F937F938F939F9396
S1130690AF93BF93EF93FF938091CD00813009F026
S11306A04BC08091CC0081110DC012BE81E08093BB
S11306B0CC001092C8001092C9001092CA00109287
S11306C0CB003AC08091C8009091C900A091CA00A3
S11306D0B091CB00BA2FA92F982F882722B7BC013D
S11306E0CD01620F711D811D911D0E94510929E2E6
S11306F03CE349E654E40E94B0080E942209609356
S1130700D2007093D3008093D4009093D5002FEF40
S113071083EF91E0215080409040E1F700C0000059
S11307201092C8001092C9001092CA001092CB0017
S11307301092CC001092CD00FF91EF91BF91AF9138
S11307409F918F917F916F915F914F913F912F91E5
S11307500F900FBE0F901F9018951F920F920FB617
S11307600F9211242F938F939F93AF93BF938091F4
S1130770C8009091C900A091CA00B091CB00019625
S1130780A11DB11D8093C8009093C900A093CA0015
S1130790B093CB008B3D9240A105B10568F012BE29
S11307A01092CD001092CC001092C8001092C90093
S11307B01092CA001092CB00BF91AF919F918F917C
S11307C02F910F900FBE0F901F90189513BE81E0CC
S11307D083BF12BE89B7816089BF089561E08CE24E
S11307E00E941B0560E08BE20E941B0561E08BE226
S11307F00E94F9060E9437030E94E603089580913F
S1130800CD00811114C061E08CE20E940A062FEF32
S113081086E791E0215080409040E1F700C000005D
S113082060E08CE20E940A0681E08093CD00089586
S11308301F920F920FB60F9211242F933F934F9351
S11308405F936F937F938F939F93AF93BF93EF9334
S1130850FF9380916000813061F414BC10926000B9
S11308601092CE001092CF001092D0001092D100BE
S113087057C08091CE009091CF00A091D000B0914C
S1130880D100BA2FA92F982F882724B5BC01CD01F8
S1130890620F711D811D911D6093E0007093E10052
S11308A08093E2009093E3000E94510920E030E03D
S11308B040EB50E40E94DF099B01AC0160E074E26C
S11308C084E79BE40E94B0086093E4007093E50021
S11308D08093E6009093E70060E070E082E090E0AF
S11308E00E94FF026091E4007091E5008091E600AF
S11308F09091E7000E940B032FEF83EF91E02150CA
S113090080409040E1F700C000001092CE001092A9
S1130910CF001092D0001092D10081E0809360004B
S1130920FF91EF91BF91AF919F918F917F916F91C3
S11309305F914F913F912F910F900FBE0F901F9099
S113094018951F920F920FB60F9211242F938F9325
S11309509F93AF93BF938091CE009091CF00A091CD
S1130960D000B091D1000196A11DB11D8093CE009D
S11309709093CF00A093D000B093D1008D329140DA
S1130980A105B10560F014BC81E080936000109271
S1130990CE001092CF001092D0001092D100BF91DF
S11309A0AF919F918F912F910F900FBE0F901F9039
S11309B0189515BC81E085BD14BC89B7806489BFD6
S11309C0089583E00E947B0860E086E10E941B0595
S11309D00E94D90408958AB38E7F8ABB87B180644C
S11309E087B987B18F7787B987B18E7F87B987B188
S11309F08D7F87B987B18B7F87B987B1877F87B9A7
S1130A0087B18F7E87B986B1816086B986B18260ED
S1130A1086B986B1846086B986B1806886B986B1A4
S1130A20806286B9089586B1806486B9349BFECF0E
S1130A3084B195B108959DEC899F912D11249695CB
S1130A4096959695662309F472C0613009F0E1C069
S1130A50923021F118F4913039F008959330C1F1B6
S1130A60943009F44CC008959DEC899F912D112474
S1130A70969596959695990F292F220F220F920FEE
S1130A80891B4AB321E030E0B90102C0660F771F29
S1130A908A95E2F7CB01842B8ABB08959DEC899F4C
S1130AA0912D112492959F70990F990F292F220F40
S1130AB0220F920F891B47B321E030E0B90102C035
S1130AC0660F771F8A95E2F7CB01842B87BB0895C5
S1130AD099E8899F912D112492959F707EE1979FAB
S1130AE08019112444B321E030E0B90102C0660F3B
S1130AF0771F8A95E2F7CB01842B84BB08959DEC84
S1130B00899F912D112492959695977078E2979FDD
S1130B108019112441B321E030E0B90102C0660F0D
S1130B20771F8A95E2F7CB01842B81BB089592301D
S1130B3029F118F4913039F008959330D1F19430BB
S1130B4009F44FC008959DEC899F912D1124969529
S1130B5096959695990F292F220F220F920F891B94
S1130B604AB321E030E0B90102C0660F771F8A95CD
S1130B70E2F7CB01809584238ABB08959DEC899F7D
S1130B80912D112492959F70990F990F292F220F5F
S1130B90220F920F891B47B321E030E0B90102C054
S1130BA0660F771F8A95E2F7CB018095842387BB74
S1130BB0089599E8899F912D112492959F707EE163
S1130BC0979F8019112444B321E030E0B90102C099
S1130BD0660F771F8A95E2F7CB018095842384BB47
S1130BE008959DEC899F912D112492959695977067
S1130BF078E2979F8019112441B321E030E0B901D4
S1130C0002C0660F771F8A95E2F7CB018095842393
S1130C1081BB08959DEC899F912D112496959695FD
S1130C209695662309F472C0613009F0E1C09230F0
S1130C3021F118F4913039F008959330C1F19430D2
S1130C4009F44CC008959DEC899F912D112496952B
S1130C5096959695990F292F220F220F920F891B93
S1130C604BB321E030E0B90102C0660F771F8A95CB
S1130C70E2F7CB01842B8BBB08959DEC899F912DCA
S1130C80112492959F70990F990F292F220F220FEB
S1130C90920F891B48B321E030E0B90102C0660F0E
S1130CA0771F8A95E2F7CB01842B88BB089599E8D6
S1130CB0899F912D112492959F707EE1979F8019B1
S1130CC0112445B321E030E0B90102C0660F771F5B
S1130CD08A95E2F7CB01842B85BB08959DEC899F0F
S1130CE0912D112492959695977078E2979F80198B
S1130CF0112442B321E030E0B90102C0660F771F2E
S1130D008A95E2F7CB01842B82BB0895923029F1B6
S1130D1018F4913039F008959330D1F1943009F4F6
S1130D204FC008959DEC899F912D11249695969519
S1130D309695990F292F220F220F920F891B4BB3DF
S1130D4021E030E0B90102C0660F771F8A95E2F70F
S1130D50CB01809584238BBB08959DEC899F912DB5
S1130D60112492959F70990F990F292F220F220F0A
S1130D70920F891B48B321E030E0B90102C0660F2D
S1130D80771F8A95E2F7CB018095842388BB089569
S1130D9099E8899F912D112492959F707EE1979FE8
S1130DA08019112445B321E030E0B90102C0660F77
S1130DB0771F8A95E2F7CB018095842385BB08953C
S1130DC09DEC899F912D112492959695977078E2C8
S1130DD0979F8019112442B321E030E0B90102C089
S1130DE0660F771F8A95E2F7CB018095842382BB37
S1130DF008959DEC899F912D11249695969596952D
S1130E00662309F472C0613009F0E1C0923021F127
S1130E1018F4913039F008959330C1F1943009F405
S1130E204CC008959DEC899F912D1124969596951B
S1130E309695990F292F220F220F920F891B4BB3DE
S1130E4021E030E0B90102C0660F771F8A95E2F70E
S1130E50CB01842B8BBB08959DEC899F912D11248C
S1130E6092959F70990F990F292F220F220F920F9D
S1130E70891B48B321E030E0B90102C0660F771F37
S1130E808A95E2F7CB01842B88BB089599E8899F62
S1130E90912D112492959F707EE1979F80191124C2
S1130EA045B321E030E0B90102C0660F771F8A958F
S1130EB0E2F7CB01842B85BB08959DEC899F912D8E
S1130EC0112492959695977078E2979F8019112432
S1130ED042B321E030E0B90102C0660F771F8A9562
S1130EE0E2F7CB01842B82BB0895923029F118F4E8
S1130EF0913039F008959330D1F1943009F44FC012
S1130F0008959DEC899F912D11249695969596951B
S1130F10990F292F220F220F920F891B4BB321E027
S1130F2030E0B90102C0660F771F8A95E2F7CB0162
S1130F30809584238BBB08959DEC899F912D11246A
S1130F4092959F70990F990F292F220F220F920FBC
S1130F50891B48B321E030E0B90102C0660F771F56
S1130F608A95E2F7CB018095842388BB089599E89C
S1130F70899F912D112492959F707EE1979F8019EE
S1130F80112445B321E030E0B90102C0660F771F98
S1130F908A95E2F7CB018095842385BB08959DEC67
S1130FA0899F912D112492959695977078E2979F39
S1130FB08019112442B321E030E0B90102C0660F68
S1130FC0771F8A95E2F7CB018095842382BB08952D
S1130FD0823059F018F4813031F00895833039F0BB
S1130FE0843039F008956BBB089568BB089565BBE0
S1130FF0089562BB0895813049F120F0823009F4EC
S113100049C00895613069F028F0623089F0633096
S1131010B1F0089585B78E7F85BF85B78D7F85BF75
S1131020089585B7816085BF85B78D7F85BF089595
S113103085B78E7F85BF85B7826085BF089585B7E4
S1131040816085BF85B7826085BF0895613069F08E
S113105028F0623089F06330B1F0089585B78B7F52
S113106085BF85B7877F85BF089585B7846085BFB1
S113107085B7877F85BF089585B78B7F85BF85B783
S1131080886085BF089585B7846085BF85B788600B
S113109085BF0895633018F0633029F0089584B74C
S11310A08F7B84BF089584B7806484BF0895CF93F1
S11310B0C82F8FB780688FBF8BB780648BBF60E009
S11310C08AE20E941B056C2F80E00E94FB07CF91EF
S11310D00895CF93C82F8FB780688FBF8BB7806870
S11310E08BBF60E08BE20E941B056C2F81E00E94A5
S11310F0FB07CF910895CF93C82F8FB780688FBF18
S11311008BB780628BBF60E086E10E941B056C2F69
S113111082E00E94FB07CF9108958AB188608AB962
S11311208AB180618AB98BB18D7F8BB987E689B921
S113113008955D9BFECF8CB908950F931F93CF93B1
S11311408C01C0E003C00E949908CF5FF801EC0F46
S1131150F11D80818111F7CFCF911F910F910895D7
S11311600E94C4080C94A5090E949E0958F00E948C
S1131170970940F029F45F3F29F00C948E0951112E
S11311800C94D9090C9494090E94B60968F3992324
S1131190B1F3552391F3951B550BBB27AA2762176F
S11311A07307840738F09F5F5F4F220F331F441F7C
S11311B0AA1FA9F335D00E2E3AF0E0E832D09150B0
S11311C05040E695001CCAF72BD0FE2F29D0660F9D
S11311D0771F881FBB1F261737074807AB07B0E8E0
S11311E009F0BB0B802DBF01FF2793585F4F3AF0E6
S11311F09E3F510578F00C948E090C94D9095F3FF9
S1131200E4F3983ED4F3869577956795B795F7956B
S11312109F5FC9F7880F911D9695879597F9089553
S1131220E1E0660F771F881FBB1F621773078407EF
S1131230BA0720F0621B730B840BBA0BEE1F88F7FE
S1131240E09508950E94BE0988F09F5798F0B92F41
S11312509927B751B0F0E1F0660F771F881F991FE7
S11312601AF0BA95C9F714C0B13091F00E94D809A8
S1131270B1E008950C94D809672F782F8827B85FB8
S113128039F0B93FCCF3869577956795B395D9F73F
S11312903EF490958095709561957F4F8F4F9F4F49
S11312A00895E89409C097FB3EF490958095709555
S11312B061957F4F8F4F9F4F9923A9F0F92F96E99E
S11312C0BB279395F695879577956795B795F11113
S11312D0F8CFFAF4BB0F11F460FF1BC06F5F7F4FB0
S11312E08F4F9F4F16C0882311F096E911C07723C2
S11312F021F09EE8872F762F05C0662371F096E8CB
S1131300862F70E060E02AF09A95660F771F881F99
S1131310DAF7880F9695879597F9089597F99F6757
S113132080E870E060E008959FEF80EC0895002469
S11313300A941616170618060906089500240A9436
S113134012161306140605060895092E0394000CBC
S113135011F4882352F0BB0F40F4BF2B11F460FF4B
S113136004C06F5F7F4F8F4F9F4F089557FD905874
S1131370440F551F59F05F3F71F04795880F97FB55
S1131380991F61F09F3F79F087950895121613060F
S11313901406551FF2CF4695F1DF08C0161617063E
S11313A01806991FF1CF8695710561050894089573
S11313B0E894BB2766277727CB0197F908950E9405
S11313C0F2090C94A5090E94970938F00E949E091D
S11313D020F0952311F00C948E090C949409112497
S11313E00C94D9090E94B60970F3959FC1F3950F27
S11313F050E0551F629FF001729FBB27F00DB11D95
S1131400639FAA27F00DB11DAA1F649F6627B00D24
S1131410A11D661F829F2227B00DA11D621F739F0D
S1131420B00DA11D621F839FA00D611D221F749F1B
S11314303327A00D611D231F849F600D211D822F62
S1131440762F6A2F11249F5750409AF0F1F0882389
S11314504AF0EE0FFF1FBB1F661F771F881F9150B6
S11314605040A9F79E3F510580F00C948E090C94CE
S1131470D9095F3FE4F3983ED4F386957795679551
S1131480B795F795E7959F5FC1F7FE2B880F911DE0
S11314909695879597F90895EF920F931F93CF939D
S11314A0DF93E80147FD02C034E001C034E1042EBB
S11314B0000C550B57FF03C0519541955109E32E7C
S11314C0022F242FAE010E946C0ACE01DF91CF912E
S11314D01F910F91EF900895A9E0B0E0E2E7FAE0E0
S11314E00C94A40C6A01122FB02E2BE3201720F0C9
S11314F0FF24F394F00E02C02CE3F22E0F2D27E00C
S1131500AE014F5F5F4F0E94C60BBC014981842F1F
S11315108970813031F0E1FC06C0E0FE06C090E243
S113152005C09DE203C09BE201C090E05E2D5071B6
S113153043FF3CC0911102C083E001C084E08117E5
S113154018F4212F281B01C020E051110BC0F60113
S1131550822F30E2882319F031938150FBCFC20EE1
S1131560D11C20E0992329F0D6019C93F6013196F1
S11315706F01C6010396E2FE0AC03EE4D6013C9325
S113158041E411964C93119712963C9306C03EE6A3
S1131590F601308341E641833283FC01322F40E27D
S11315A0332309F442C041933150FACF42FF44C07F
S11315B0911102C083E001C084E0811718F4212F47
S11315C0281B01C020E051110BC0F601822F30E22C
S11315D0882319F031938150FBCFC20ED11C20E037
S11315E0992329F0D6019C93F60131966F01C60127
S11315F00396E2FE0BC039E4D6013C933EE4119617
S11316003C93119736E412963C9307C039E6F601F1
S113161030833EE6318336E63283FC01322F40E2EA
S1131620332319F041933150FBCFFC01E20FF11D3C
S113163010828EEF9FEFA6C021E030E0911102C02E
S113164020E030E0161617061CF4FB01319602C0A8
S1131650E1E0F0E02E0F3F1FBB2021F0EB2DF0E086
S1131660319602C0E0E0F0E02E0F3F1FE12FF0E0E2
S11316702E173F071CF4121B212F01C020E08E2DD2
S1131680887159F4F601822F30E2882319F03193DE
S11316908150FBCFC20ED11C20E0992329F0D60142
S11316A09C93F60131966F0151110BC0F601822F04
S11316B090E3882319F091938150FBCFC20ED11C83
S11316C020E00F2D060F9A81342F307144FF03C0A0
S11316D0913309F40150101624F4093018F008E08D
S11316E001C001E0AB0177FF02C040E050E0FB0124
S11316F0E41BF50BA1E0B0E0AC0FBD1FEA0FFB1F2C
S11317008EE2A82E4B01801A91080B2D10E0119542
S1131710019511094F3FBFEF5B0721F4D601AC924D
S113172011966D01641775072CF08416950614F450
S1131730818101C080E3415051093196D60111964F
S11317407D014017510724F0D6018C936701E2CF45
S11317506417750739F4963320F4953319F431116D
S113176001C081E3F6018083F701822F90E2882390
S113177019F091938150FBCFF701E20FF11D108214
S113178080E090E02996ECE00C94C00C283008F03E
S113179027E03327DA01990F311D87FD9160009608
S11317A06105710539F432602E5F3D9330E32A956B
S11317B0E1F708959F3F30F080387105610509F025
S11317C03C5F3C5F3D93913008F08068911DDF934E
S11317D0CF931F930F93FF92EF92192F987F9695B3
S11317E0E92F96959695E90FFF27E255FF4F992724
S11317F03327EE24FF24A701E701059008940794FA
S113180028F4360FE71EF81E491F511D660F771F77
S1131810881F991F0694A1F70590079428F4E70EF2
S1131820F81E491F561FC11D770F881F991F661F79
S11318300694A1F70590079428F4F80E491F561F43
S1131840C71FD11D880F991F661F771F0694A1F724
S11318500590079420F4490F561FC71FD81F990FEE
S1131860661F771F881F0694A9F784911095177037
S113187041F0D695C79557954795F794E7941A95EF
S1131880C1F7E4E5F0E06894159015913591659100
S1131890959105907FE27395E118F10A430B560B7D
S11318A0C90BD009C0F7E10CF11E431F561FC91F15
S11318B0D01D7EF4703311F48A95E6CFE89401507C
S11318C030F0080F0AF40027021708F4202F23959C
S11318D0022F7A3328F079E37D932A95E9F710C033
S11318E07D932A9589F6069497956795379517956C
S11318F01794E118F10A430B560BC90BD00998F061
S113190023957E9173957A3308F070E37C932013CA
S1131910B8F77E9170617D9330F0839571E37D9388
S113192070E32A95E1F71124EF90FF900F911F9136
S1131930CF91DF91992787FD909508952F923F923B
S11319404F925F926F927F928F929F92AF92BF92CB
S1131950CF92DF92EF92FF920F931F93CF93DF9377
S1131960CDB7DEB7CA1BDB0B0FB6F894DEBF0FBED4
S1131970CDBF09942A88398848885F846E847D8421
S11319808C849B84AA84B984C884DF80EE80FD8023
S11319900C811B81AA81B981CE0FD11D0FB6F89499
S11119A0DEBF0FBECDBFED010895F894FFCF5A
S11319AE014C434420636865636B656400732A00CD
S11319BE5365776167652050726F626C656D203276
S11319CE00632A00636C656172656400672A0047D0
S11319DE4153206C65616B2032006A2A00474153E3
S11319EE203220434C45415200622A0062726561E6
S11319FE6B20696E2032206465746563746564209F
S1071A0E212121006D
S9030000FC
